{
  "_format": "hh-sol-artifact-1",
  "contractName": "Tracking",
  "sourceName": "contracts/Tracking.sol",
  "abi": [
    {
      "inputs": [],
      "stateMutability": "nonpayable",
      "type": "constructor"
    },
    {
      "anonymous": false,
      "inputs": [
        {
          "indexed": true,
          "internalType": "address",
          "name": "sender",
          "type": "address"
        },
        {
          "indexed": true,
          "internalType": "address",
          "name": "receiver",
          "type": "address"
        },
        {
          "indexed": false,
          "internalType": "uint256",
          "name": "pickupTime",
          "type": "uint256"
        },
        {
          "indexed": false,
          "internalType": "uint256",
          "name": "distance",
          "type": "uint256"
        },
        {
          "indexed": false,
          "internalType": "uint256",
          "name": "price",
          "type": "uint256"
        }
      ],
      "name": "OrderCreated",
      "type": "event"
    },
    {
      "anonymous": false,
      "inputs": [
        {
          "indexed": true,
          "internalType": "address",
          "name": "sender",
          "type": "address"
        },
        {
          "indexed": true,
          "internalType": "address",
          "name": "receiver",
          "type": "address"
        },
        {
          "indexed": false,
          "internalType": "uint256",
          "name": "pickupTime",
          "type": "uint256"
        }
      ],
      "name": "OrderDelivered",
      "type": "event"
    },
    {
      "anonymous": false,
      "inputs": [
        {
          "indexed": true,
          "internalType": "address",
          "name": "sender",
          "type": "address"
        },
        {
          "indexed": true,
          "internalType": "address",
          "name": "receiver",
          "type": "address"
        },
        {
          "indexed": false,
          "internalType": "uint256",
          "name": "pickupTime",
          "type": "uint256"
        }
      ],
      "name": "OrderInTransit",
      "type": "event"
    },
    {
      "anonymous": false,
      "inputs": [
        {
          "indexed": true,
          "internalType": "address",
          "name": "sender",
          "type": "address"
        },
        {
          "indexed": true,
          "internalType": "address",
          "name": "receiver",
          "type": "address"
        },
        {
          "indexed": false,
          "internalType": "uint256",
          "name": "amount",
          "type": "uint256"
        }
      ],
      "name": "OrderPaid",
      "type": "event"
    },
    {
      "inputs": [
        {
          "internalType": "address",
          "name": "_sender",
          "type": "address"
        },
        {
          "internalType": "address",
          "name": "_receiver",
          "type": "address"
        },
        {
          "internalType": "uint256",
          "name": "_index",
          "type": "uint256"
        }
      ],
      "name": "completeOrder",
      "outputs": [],
      "stateMutability": "nonpayable",
      "type": "function"
    },
    {
      "inputs": [
        {
          "internalType": "address",
          "name": "_receiver",
          "type": "address"
        },
        {
          "internalType": "uint256",
          "name": "_pickupTIme",
          "type": "uint256"
        },
        {
          "internalType": "uint256",
          "name": "_distance",
          "type": "uint256"
        },
        {
          "internalType": "uint256",
          "name": "_price",
          "type": "uint256"
        }
      ],
      "name": "createOrder",
      "outputs": [],
      "stateMutability": "payable",
      "type": "function"
    },
    {
      "inputs": [],
      "name": "getAllTransactions",
      "outputs": [
        {
          "components": [
            {
              "internalType": "address",
              "name": "sender",
              "type": "address"
            },
            {
              "internalType": "address",
              "name": "receiver",
              "type": "address"
            },
            {
              "internalType": "uint256",
              "name": "pickupTime",
              "type": "uint256"
            },
            {
              "internalType": "uint256",
              "name": "deliveryTime",
              "type": "uint256"
            },
            {
              "internalType": "uint256",
              "name": "distance",
              "type": "uint256"
            },
            {
              "internalType": "uint256",
              "name": "price",
              "type": "uint256"
            },
            {
              "internalType": "enum Tracking.DeliveryStatus",
              "name": "status",
              "type": "uint8"
            },
            {
              "internalType": "bool",
              "name": "isSold",
              "type": "bool"
            }
          ],
          "internalType": "struct Tracking.TypeOrder[]",
          "name": "",
          "type": "tuple[]"
        }
      ],
      "stateMutability": "view",
      "type": "function"
    },
    {
      "inputs": [
        {
          "internalType": "address",
          "name": "_sender",
          "type": "address"
        },
        {
          "internalType": "uint256",
          "name": "_index",
          "type": "uint256"
        }
      ],
      "name": "getOrder",
      "outputs": [
        {
          "internalType": "address",
          "name": "",
          "type": "address"
        },
        {
          "internalType": "address",
          "name": "",
          "type": "address"
        },
        {
          "internalType": "uint256",
          "name": "",
          "type": "uint256"
        },
        {
          "internalType": "uint256",
          "name": "",
          "type": "uint256"
        },
        {
          "internalType": "uint256",
          "name": "",
          "type": "uint256"
        },
        {
          "internalType": "uint256",
          "name": "",
          "type": "uint256"
        },
        {
          "internalType": "enum Tracking.DeliveryStatus",
          "name": "",
          "type": "uint8"
        },
        {
          "internalType": "bool",
          "name": "",
          "type": "bool"
        }
      ],
      "stateMutability": "view",
      "type": "function"
    },
    {
      "inputs": [
        {
          "internalType": "address",
          "name": "_sender",
          "type": "address"
        }
      ],
      "name": "getOrdersCount",
      "outputs": [
        {
          "internalType": "uint256",
          "name": "",
          "type": "uint256"
        }
      ],
      "stateMutability": "view",
      "type": "function"
    },
    {
      "inputs": [
        {
          "internalType": "address",
          "name": "",
          "type": "address"
        },
        {
          "internalType": "uint256",
          "name": "",
          "type": "uint256"
        }
      ],
      "name": "orders",
      "outputs": [
        {
          "internalType": "address",
          "name": "sender",
          "type": "address"
        },
        {
          "internalType": "address",
          "name": "receiver",
          "type": "address"
        },
        {
          "internalType": "uint256",
          "name": "pickupTime",
          "type": "uint256"
        },
        {
          "internalType": "uint256",
          "name": "deliveryTime",
          "type": "uint256"
        },
        {
          "internalType": "uint256",
          "name": "distance",
          "type": "uint256"
        },
        {
          "internalType": "uint256",
          "name": "price",
          "type": "uint256"
        },
        {
          "internalType": "enum Tracking.DeliveryStatus",
          "name": "status",
          "type": "uint8"
        },
        {
          "internalType": "bool",
          "name": "isSold",
          "type": "bool"
        }
      ],
      "stateMutability": "view",
      "type": "function"
    },
    {
      "inputs": [],
      "name": "ordersCount",
      "outputs": [
        {
          "internalType": "uint256",
          "name": "",
          "type": "uint256"
        }
      ],
      "stateMutability": "view",
      "type": "function"
    },
    {
      "inputs": [
        {
          "internalType": "address",
          "name": "_sender",
          "type": "address"
        },
        {
          "internalType": "address",
          "name": "_receiver",
          "type": "address"
        },
        {
          "internalType": "uint256",
          "name": "_index",
          "type": "uint256"
        }
      ],
      "name": "startOrder",
      "outputs": [],
      "stateMutability": "nonpayable",
      "type": "function"
    }
  ],
  "bytecode": "0x608060405234801561001057600080fd5b5060006001819055506119b2806100286000396000f3fe60806040526004361061007a5760003560e01c8063696b67431161004e578063696b6743146101275780636f652e1a14610164578063793b8c6d14610180578063edb25841146101c45761007a565b8062cfd0c81461007f57806327506f53146100a857806335daa731146100d357806363b5f255146100fe575b600080fd5b34801561008b57600080fd5b506100a660048036038101906100a191906111c0565b610208565b005b3480156100b457600080fd5b506100bd610464565b6040516100ca9190611415565b60405180910390f35b3480156100df57600080fd5b506100e86105ee565b6040516100f59190611446565b60405180910390f35b34801561010a57600080fd5b50610125600480360381019061012091906111c0565b6105f4565b005b34801561013357600080fd5b5061014e60048036038101906101499190611461565b6109c8565b60405161015b9190611446565b60405180910390f35b61017e6004803603810190610179919061148e565b610a13565b005b34801561018c57600080fd5b506101a760048036038101906101a291906114f5565b610e7e565b6040516101bb989796959493929190611562565b60405180910390f35b3480156101d057600080fd5b506101eb60048036038101906101e691906114f5565b610f3d565b6040516101ff989796959493929190611562565b60405180910390f35b60008060008573ffffffffffffffffffffffffffffffffffffffff1673ffffffffffffffffffffffffffffffffffffffff168152602001908152602001600020828154811061025a576102596115e0565b5b906000526020600020906007020190506000600283815481106102805761027f6115e0565b5b906000526020600020906007020190508373ffffffffffffffffffffffffffffffffffffffff168260010160009054906101000a900473ffffffffffffffffffffffffffffffffffffffff1673ffffffffffffffffffffffffffffffffffffffff1614610322576040517f08c379a00000000000000000000000000000000000000000000000000000000081526004016103199061166c565b60405180910390fd5b600060028111156103365761033561125d565b5b8260060160009054906101000a900460ff16600281111561035a5761035961125d565b5b1461039a576040517f08c379a0000000000000000000000000000000000000000000000000000000008152600401610391906116d8565b60405180910390fd5b60018260060160006101000a81548160ff021916908360028111156103c2576103c161125d565b5b021790555060018160060160006101000a81548160ff021916908360028111156103ef576103ee61125d565b5b02179055508373ffffffffffffffffffffffffffffffffffffffff168573ffffffffffffffffffffffffffffffffffffffff167fcab4c38190d242dd294cae7d7e2791e344aed5525848dc336020c20d2032033284600201546040516104559190611446565b60405180910390a35050505050565b60606002805480602002602001604051908101604052809291908181526020016000905b828210156105e55783829060005260206000209060070201604051806101000160405290816000820160009054906101000a900473ffffffffffffffffffffffffffffffffffffffff1673ffffffffffffffffffffffffffffffffffffffff1673ffffffffffffffffffffffffffffffffffffffff1681526020016001820160009054906101000a900473ffffffffffffffffffffffffffffffffffffffff1673ffffffffffffffffffffffffffffffffffffffff1673ffffffffffffffffffffffffffffffffffffffff168152602001600282015481526020016003820154815260200160048201548152602001600582015481526020016006820160009054906101000a900460ff1660028111156105a5576105a461125d565b5b60028111156105b7576105b661125d565b5b81526020016006820160019054906101000a900460ff16151515158152505081526020019060010190610488565b50505050905090565b60015481565b60008060008573ffffffffffffffffffffffffffffffffffffffff1673ffffffffffffffffffffffffffffffffffffffff1681526020019081526020016000208281548110610646576106456115e0565b5b9060005260206000209060070201905060006002838154811061066c5761066b6115e0565b5b906000526020600020906007020190508373ffffffffffffffffffffffffffffffffffffffff168260010160009054906101000a900473ffffffffffffffffffffffffffffffffffffffff1673ffffffffffffffffffffffffffffffffffffffff161461070e576040517f08c379a000000000000000000000000000000000000000000000000000000000815260040161070590611744565b60405180910390fd5b600160028111156107225761072161125d565b5b8260060160009054906101000a900460ff1660028111156107465761074561125d565b5b14610786576040517f08c379a000000000000000000000000000000000000000000000000000000000815260040161077d906117b0565b60405180910390fd5b8160060160019054906101000a900460ff16156107d8576040517f08c379a00000000000000000000000000000000000000000000000000000000081526004016107cf9061181c565b60405180910390fd5b60028260060160006101000a81548160ff02191690836002811115610800576107ff61125d565b5b021790555042826003018190555060028160060160006101000a81548160ff021916908360028111156108365761083561125d565b5b02179055504281600301819055506000826005015490508260000160009054906101000a900473ffffffffffffffffffffffffffffffffffffffff1673ffffffffffffffffffffffffffffffffffffffff166108fc829081150290604051600060405180830381858888f193505050501580156108b7573d6000803e3d6000fd5b5060018360060160016101000a81548160ff02191690831515021790555060018260060160016101000a81548160ff0219169083151502179055508473ffffffffffffffffffffffffffffffffffffffff168673ffffffffffffffffffffffffffffffffffffffff167fc5f62c264edb12acb955e7d1026db1a632dc5bc89e298ded4a75375224c5afc285600301546040516109539190611446565b60405180910390a38473ffffffffffffffffffffffffffffffffffffffff168673ffffffffffffffffffffffffffffffffffffffff167fcc6efb90a94d41f6c655eb7f1d4243459ac1466335a892a8f1f35dbf3bc7ec90836040516109b89190611446565b60405180910390a3505050505050565b60008060008373ffffffffffffffffffffffffffffffffffffffff1673ffffffffffffffffffffffffffffffffffffffff168152602001908152602001600020805490509050919050565b803414610a55576040517f08c379a0000000000000000000000000000000000000000000000000000000008152600401610a4c906118ae565b60405180910390fd5b60006040518061010001604052803373ffffffffffffffffffffffffffffffffffffffff1681526020018673ffffffffffffffffffffffffffffffffffffffff1681526020018581526020016000815260200184815260200183815260200160006002811115610ac857610ac761125d565b5b81526020016000151581525090506000803373ffffffffffffffffffffffffffffffffffffffff1673ffffffffffffffffffffffffffffffffffffffff16815260200190815260200160002081908060018154018082558091505060019003906000526020600020906007020160009091909190915060008201518160000160006101000a81548173ffffffffffffffffffffffffffffffffffffffff021916908373ffffffffffffffffffffffffffffffffffffffff16021790555060208201518160010160006101000a81548173ffffffffffffffffffffffffffffffffffffffff021916908373ffffffffffffffffffffffffffffffffffffffff16021790555060408201518160020155606082015181600301556080820151816004015560a0820151816005015560c08201518160060160006101000a81548160ff02191690836002811115610c1f57610c1e61125d565b5b021790555060e08201518160060160016101000a81548160ff021916908315150217905550505060016000815480929190610c59906118fd565b919050555060026040518061010001604052803373ffffffffffffffffffffffffffffffffffffffff1681526020018773ffffffffffffffffffffffffffffffffffffffff1681526020018681526020016000815260200185815260200184815260200160006002811115610cd157610cd061125d565b5b815260200160001515815250908060018154018082558091505060019003906000526020600020906007020160009091909190915060008201518160000160006101000a81548173ffffffffffffffffffffffffffffffffffffffff021916908373ffffffffffffffffffffffffffffffffffffffff16021790555060208201518160010160006101000a81548173ffffffffffffffffffffffffffffffffffffffff021916908373ffffffffffffffffffffffffffffffffffffffff16021790555060408201518160020155606082015181600301556080820151816004015560a0820151816005015560c08201518160060160006101000a81548160ff02191690836002811115610de757610de661125d565b5b021790555060e08201518160060160016101000a81548160ff02191690831515021790555050508473ffffffffffffffffffffffffffffffffffffffff163373ffffffffffffffffffffffffffffffffffffffff167fe43c7a25359805ec97a99d788eab6bc01d5ead3a30a6d0d4998533e9cc53e230868686604051610e6f93929190611945565b60405180910390a35050505050565b60006020528160005260406000208181548110610e9a57600080fd5b9060005260206000209060070201600091509150508060000160009054906101000a900473ffffffffffffffffffffffffffffffffffffffff16908060010160009054906101000a900473ffffffffffffffffffffffffffffffffffffffff16908060020154908060030154908060040154908060050154908060060160009054906101000a900460ff16908060060160019054906101000a900460ff16905088565b60008060008060008060008060008060008c73ffffffffffffffffffffffffffffffffffffffff1673ffffffffffffffffffffffffffffffffffffffff1681526020019081526020016000208a81548110610f9b57610f9a6115e0565b5b9060005260206000209060070201604051806101000160405290816000820160009054906101000a900473ffffffffffffffffffffffffffffffffffffffff1673ffffffffffffffffffffffffffffffffffffffff1673ffffffffffffffffffffffffffffffffffffffff1681526020016001820160009054906101000a900473ffffffffffffffffffffffffffffffffffffffff1673ffffffffffffffffffffffffffffffffffffffff1673ffffffffffffffffffffffffffffffffffffffff168152602001600282015481526020016003820154815260200160048201548152602001600582015481526020016006820160009054906101000a900460ff1660028111156110ae576110ad61125d565b5b60028111156110c0576110bf61125d565b5b81526020016006820160019054906101000a900460ff1615151515815250509050806000015181602001518260400151836060015184608001518560a001518660c001518760e0015198509850985098509850985098509850509295985092959890939650565b600080fd5b600073ffffffffffffffffffffffffffffffffffffffff82169050919050565b60006111578261112c565b9050919050565b6111678161114c565b811461117257600080fd5b50565b6000813590506111848161115e565b92915050565b6000819050919050565b61119d8161118a565b81146111a857600080fd5b50565b6000813590506111ba81611194565b92915050565b6000806000606084860312156111d9576111d8611127565b5b60006111e786828701611175565b93505060206111f886828701611175565b9250506040611209868287016111ab565b9150509250925092565b600081519050919050565b600082825260208201905092915050565b6000819050602082019050919050565b6112488161114c565b82525050565b6112578161118a565b82525050565b7f4e487b7100000000000000000000000000000000000000000000000000000000600052602160045260246000fd5b6003811061129d5761129c61125d565b5b50565b60008190506112ae8261128c565b919050565b60006112be826112a0565b9050919050565b6112ce816112b3565b82525050565b60008115159050919050565b6112e9816112d4565b82525050565b61010082016000820151611306600085018261123f565b506020820151611319602085018261123f565b50604082015161132c604085018261124e565b50606082015161133f606085018261124e565b506080820151611352608085018261124e565b5060a082015161136560a085018261124e565b5060c082015161137860c08501826112c5565b5060e082015161138b60e08501826112e0565b50505050565b600061139d83836112ef565b6101008301905092915050565b6000602082019050919050565b60006113c282611213565b6113cc818561121e565b93506113d78361122f565b8060005b838110156114085781516113ef8882611391565b97506113fa836113aa565b9250506001810190506113db565b5085935050505092915050565b6000602082019050818103600083015261142f81846113b7565b905092915050565b6114408161118a565b82525050565b600060208201905061145b6000830184611437565b92915050565b60006020828403121561147757611476611127565b5b600061148584828501611175565b91505092915050565b600080600080608085870312156114a8576114a7611127565b5b60006114b687828801611175565b94505060206114c7878288016111ab565b93505060406114d8878288016111ab565b92505060606114e9878288016111ab565b91505092959194509250565b6000806040838503121561150c5761150b611127565b5b600061151a85828601611175565b925050602061152b858286016111ab565b9150509250929050565b61153e8161114c565b82525050565b61154d816112b3565b82525050565b61155c816112d4565b82525050565b600061010082019050611578600083018b611535565b611585602083018a611535565b6115926040830189611437565b61159f6060830188611437565b6115ac6080830187611437565b6115b960a0830186611437565b6115c660c0830185611544565b6115d360e0830184611553565b9998505050505050505050565b7f4e487b7100000000000000000000000000000000000000000000000000000000600052603260045260246000fd5b600082825260208201905092915050565b7f496e76616c69642052656365697665722e000000000000000000000000000000600082015250565b600061165660118361160f565b915061166182611620565b602082019050919050565b6000602082019050818103600083015261168581611649565b9050919050565b7f4d65646963696e6520616c7265616479206f6e20746865207761792e00000000600082015250565b60006116c2601c8361160f565b91506116cd8261168c565b602082019050919050565b600060208201905081810360008301526116f1816116b5565b9050919050565b7f496e76616c696420726563656976657200000000000000000000000000000000600082015250565b600061172e60108361160f565b9150611739826116f8565b602082019050919050565b6000602082019050818103600083015261175d81611721565b9050919050565b7f4d65646963696e65206e6f7420746865207761792e0000000000000000000000600082015250565b600061179a60158361160f565b91506117a582611764565b602082019050919050565b600060208201905081810360008301526117c98161178d565b9050919050565b7f4d65646963696e6520616c726561647920736f6c640000000000000000000000600082015250565b600061180660158361160f565b9150611811826117d0565b602082019050919050565b60006020820190508181036000830152611835816117f9565b9050919050565b7f5061796d656e7420616d6f756e74206d757374206d617463682074686520707260008201527f6963652e00000000000000000000000000000000000000000000000000000000602082015250565b600061189860248361160f565b91506118a38261183c565b604082019050919050565b600060208201905081810360008301526118c78161188b565b9050919050565b7f4e487b7100000000000000000000000000000000000000000000000000000000600052601160045260246000fd5b60006119088261118a565b91507fffffffffffffffffffffffffffffffffffffffffffffffffffffffffffffffff820361193a576119396118ce565b5b600182019050919050565b600060608201905061195a6000830186611437565b6119676020830185611437565b6119746040830184611437565b94935050505056fea26469706673582212204b469cf9d02bd215f44ce13ff971e98d7bade38eb0c207fb17baf7b2d4b2858664736f6c63430008130033",
  "linkReferences": {},
  "deployedLinkReferences": {}
}